:020000040800F2
:10000000A07E0020950200082B590008BF48000878
:1000100025590008C5120008C98100080000000029
:10002000000000000000000000000000D9010008EE
:10003000DD130008000000002D02000869770008A9
:10004000AF020008AF020008AF020008AF020008CC
:10005000AF020008AF020008AF020008AF020008BC
:10006000AF020008AF020008AF020008CD1200087E
:10007000AF020008D9120008AF020008E51200081C
:10008000F1120008FD12000889100008AF020008F4
:10009000AF020008AF020008AF0200081B140008FE
:1000A000AF0200088D78000871780008AF020008E0
:1000B000A9780008AF020008AF020008D148000884
:1000C000C5480008AF020008AF020008AF020008F0
:1000D0004D590008B1810008BD810008AF02000839
:1000E000FD130008AF020008AF020008CD78000839
:1000F000E5780008D9780008AF0200080913000865
:10010000AF020008AF020008AF020008AF0200080B
:10011000AF020008017D0008B5780008C17800082A
:1001200015130008211300082D130008AF02000862
:10013000AF0200080000000000000000AF0200084D
:10014000AF020008AF020008AF020008AF020008CB
:10015000AF020008AF020008AF020008AF020008BB
:10016000AF020008AF020008AF020008AF020008AB
:10017000AF020008AF020008AF0200080000000054
:1001800000000000AF0200080000000000000000B6
:10019000AF0200080000000000000000AF020008ED
:1001A000000000000000000000000000AF02000896
:1001B000AF020008AF020008AF020008AF0200085B
:1001C000AF020008DFF80CD000F0DAFC004800476E
:1001D000CDC60008A07E00202B4B19680868B0E847
:1001E000F04F80F30988BFF36F8F4FF0000080F36A
:1001F000118870470000000006480068006880F31E
:10020000088862B661B6BFF34F8FBFF36F8F00DF10
:1002100000BF00BF08ED00E0DFF80C00016841F40A
:1002200070010160704700BF88ED00E0EFF30980C6
:10023000BFF36F8F144B1A681EF0100F08BF20ED2C
:10024000108A20E9F04F106008B44FF0500080F39E
:100250001188BFF34F8FBFF36F8F0EF0FFF94FF090
:10026000000080F3118808BC19680868B0E8F04FF6
:100270001EF0100F08BFB0EC108A80F30988BFF39E
:100280006F8F704700BF00BFCC080020EFF30580E0
:10029000704700000648804706480047FEE7FEE733
:1002A000FEE7FEE7FEE7FEE7FEE7FEE7FEE7FEE726
:1002B0001D780008C50100082DE9F05F0546002003
:1002C00092469B4688460646814640241BE02846C7
:1002D00041464746224600F07CFA53465A46C01A29
:1002E000914110D311461846224600F063FA2D1AA8
:1002F00067EB01084F4622460120002100F05AFA20
:1003000017EB00094E41201EA4F10104DFDC484632
:1003100031462A464346BDE8F09F40EA01039B0769
:1003200003D009E008C9121F08C0042AFAD203E06A
:1003300011F8013B00F8013B521EF9D27047D2B2CE
:1003400001E000F8012B491EFBD270470022F6E7BE
:1003500010B513460A4604461946FFF7F0FF20463B
:1003600010BD70B5064607F073FF046805460A2203
:100370000021304600F09EFA2C6070BD2DE9FE4F42
:10038000804681EA0300C00F0C46009021F0004136
:1003900023F00045B8EB0200A94105D240462146B2
:1003A00090461C460B46024623F00040104347D0BF
:1003B000270DC7F30A00C3F30A510290401A0190B7
:1003C00040286BDAC3F3130040F4801B0098924678
:1003D00020B10023D2EB030A63EB0B0B01985946C3
:1003E000C0F14002504600F0E5F906460D46504681
:1003F0005946019A00F0FDF910EB08006141002414
:1004000087EA115284EAE7731A4340D0009A62B334
:10041000019A012A4FEA075215DC001B61EB020129
:100420004FF0004202EA0752CDE90042001C41F5BC
:10043000801132462B4600F0BBFA03B0BDE8F08FC6
:1004400040462146F9E7001B61EB0201001C41F523
:10045000801300185B412018A2F5001747EB030139
:1004600040EAD570B6196D4111E06D084FEA3606C5
:1004700045EAC0754FEA0752001B61EB0201001C00
:1004800041F5801149084FEA3000001951413246C8
:100490002B4603B0BDE8F04F00F07BBA0098012274
:1004A00040000023D0EB020263EBE073009821468A
:1004B0004FEAE074B8EB000061EB0401E9E783F078
:1004C00000435BE781F0004158E72DE9FE4F81EAE8
:1004D000030404F0004421F0004100944FF0000BAD
:1004E00023F0004350EA01045ED052EA03045BD0DB
:1004F000C3F30A54C1F30A552C44A4F2F334019413
:10050000A0FB0254C1F3130141F48011C3F31303A0
:1005100043F4801301FB024400FB034E840A970A54
:1005200044EA815447EA8357A4FB076802958D0A81
:1005300005FB07854FEA932C04FB0C542705029D0D
:100540004FEA065847EA1637B5EB08056EEB070C7D
:10055000870E920E47EA811742EA8312A7FB020137
:10056000B6EB0B0164EB00042B0D43EA0C335E1871
:1005700044EB1C50DA465146E7FB0201C5F3130475
:100580004FEA0B3343EA14534FEA0432019C43EA27
:100590000603A4F10C040294009CCDE900B400F021
:1005A00007FA03B0BDE8F08F00200146F9E72DE916
:1005B000F04D81EA030404F0004B21F0004514469D
:1005C0004FF0000A23F0004150EA050220D054EA1F
:1005D00001021DD0C5F30A570246C5F31303C1F348
:1005E0001300C1F30A5640F4801543F48013A7EBBF
:1005F0000608101BD64608F2FD3873EB050002D33F
:1006000008F1010801E092185B41B8F1000F03DA2C
:1006100000200146BDE8F08D00204FF48011064611
:1006200084460EE0171B73EB050705D3121B63EB23
:10063000050306434CEA010C49084FEA30009218C2
:100640005B4150EA0107EDD152EA030012D082EA81
:10065000040083EA0501084305D0101BAB4106D214
:100660000122002306E000224FF0004302E06FF079
:10067000010253101AEB06004CEB085110EB0A0074
:1006800041EB0B01BDE8F04D00F083B90EB5C10F91
:1006900080EAE0700844CA07002140F233438DE845
:1006A0000E000A460B4600F083F903B000BD0EB5FC
:1006B00040F2334102910021CDE900110A460B4678
:1006C00000F076F903B000BDC1F30A5210B5C1F3D2
:1006D000130140F2FF3341F480119A4201DA002005
:1006E00010BD40F233439A42A2F2334203DC52423D
:1006F00000F06FF810BD904010BD00F0004230F0E7
:1007000000400AD0C10D01F56071C0F3160042EA45
:100710000151C2084007114370470020014670474D
:1007200030B5041E71F1000404DB4FF00044404278
:1007300064EB0101141E73F1000405DB1C464FF04D
:100740000043524263EB04038B4208BF824230BD38
:1007500001F0004330B421F0004150EA010206D01C
:100760000A0DA2F56072C1F31301002A02DC30BC4D
:1007700000207047440F44EAC104C100E01830BCB7
:1007800000EBC25000F0CEB830B50B460146002059
:100790002022012409E021FA02F59D4205D303FA43
:1007A00002F5491B04FA02F52844151EA2F10102C4
:1007B000F1DC30BD202A04DB203A00FA02F10020EF
:1007C00070479140C2F1200320FA03F3194390408F
:1007D0007047202A04DB203A21FA02F000217047FA
:1007E00021FA02F3D040C2F1200291400843194699
:1007F0007047202A06DBCB17203A41FA02F043EA81
:10080000E07306E041FA02F3D040C2F120029140C9
:1008100008431946704700000FB4002300B589B0A3
:100820000CA900910B996FF00042CB601E4B069310
:100830001E4B07930423CDE901321D4A089202465C
:100840006B46002000F050FA09B05DF814FB70B55B
:1008500086B006464FF0FF300091CDE9010100203F
:1008600015460C4604903246694604A8FFF7D4FFAB
:1008700002460498211825B108B1084600E0204638
:100880002860049800280DD0002A02DD00988842D4
:1008900008D0081B0094CDE901043246694604A83B
:1008A000FFF7BAFF06B070BD210F00083F0F000828
:1008B000AD0B00082DE9F04791460F4680460446EF
:1008C000002614F8015B2DB100F06CF90068405D62
:1008D000C007F6D12B2D02D02D2D18D0641E4A460C
:1008E0003946204600F03CFB27B13968A14201D1CE
:1008F000C7F8008071054FF002040BD54042002874
:1009000003DD07F0A5FC0460A007BDE8F08746F40E
:100910008066E4E70028F8DA07F09AFC04606FF0DC
:100920000040F2E70029A8BF7047401C490008BFFB
:1009300020F00100704710B4B0FA80FC00FA0CF00F
:1009400050EA010404BF10BC704749B1CCF1200447
:1009500021FA04F411FA0CF118BF012121430843D4
:10096000A3EB0C01CB1D4FEA00614FEA102042BF00
:10097000002010BC704700EBC35010440029A4BFF6
:1009800010BC7047401C490008BF20F0010010BC9B
:10099000704710B5141E73F1000408DA401C41F1D1
:1009A000000192185B411A4301D120F0010010BDF3
:1009B0002DE9F04D92469B4611B1B1FA81F202E069
:1009C000B0FA80F220329046FFF7F4FE04460F465C
:1009D00040EA0A0041EA0B0153465A46084313D045
:1009E000114653EA010019D0C8F140025046FFF702
:1009F000F0FE05460E46504659464246FFF7DAFEDF
:100A0000084305D0012004E020463946BDE8F08DBA
:100A10000020054346EAE0762C4337430A986305F5
:100A2000E40AA0EB08000022FD0A44EA47540A3019
:100A300002D500200146E9E7010510196941DDE909
:100A4000084500196941BDE8F04DA2E770B521F0F5
:100A5000004303430CD0C1F30A550024D5EB040531
:100A600064EB0403D617AD1AB34102DB0020014644
:100A700070BD201841EB025170BD2DE9F04D0023EF
:100A80001A461B1A8A4103DB00200146BDE8F08D9F
:100A9000C1F30A52C1F3130141F480154FF0000B6A
:100AA000D10702D100186D41521E0027044640F2C2
:100AB000FF11384601EB620A3E468046024600209E
:100AC0004FF48011FFF785FEC2197141BB1846EB48
:100AD0000100B4EB030C75EB000C04D3E41A65EBD6
:100AE000000517460E46241908F101006D418046A5
:100AF0003428E3DDF91946EB0600091BA84103D2AF
:100B00004FF0FF32134601E0002213461BEB0700B3
:100B100046EB0A51BDE8F04DFFF73BBFC1F30A5267
:100B2000C1F3130140F2FF3341F480119A4202DA1B
:100B300000200146704740F233439A42A2F233420A
:100B400002DC5242FFF745BEFFF734BE30B5041E4B
:100B500071F1000404DB4FF00044404264EB0101FA
:100B6000141E73F1000405DB1C464FF00043524293
:100B700063EB0403994208BF904230BD00207047E8
:100B8000064C074D06E0E06840F0010394E80700DA
:100B900098471034AC42F6D3FFF718FB80F30008F7
:100BA000A0F30008004870470CF3000810B5044695
:100BB000FFF7F8FF0068005D00F0010010BD0000C5
:100BC0002DE9FF4F087883B09946FF2805D0491CCE
:100BD0002D2804D00024002008E000200BE0012490
:100BE000F9E700EB800003EB4000491C0B78FF2B7A
:100BF000F7D104B1404200230293147819461D46F0
:100C00002D2C01D02B2C04D1521C2D2C13D00024C0
:100C10000294AA461478FF2C0FD00A25A3FB05786E
:100C200001FB05814FF0000C03FB0C11521CE31972
:100C30004AEB0101EEE70124EAE7814453EA0100AF
:100C400002D019F5C87F06DA03980021C0E9001127
:100C500007B0BDE8F08F0025AE4E2F46DFF8B88212
:100C6000184600F0DAF9CDE90001B9F1000002DA26
:100C7000C9F1000400E004460023A74A1AEB030B65
:100C800042EB045A12E0E00707D02A4633463846C2
:100C90004146FFF71AFC074688462A463346104667
:100CA0001946FFF712FC05460E466410002CEAD1E7
:100CB000DDE90001B9F1000F5A46534606DAFFF7A5
:100CC00076FC3A464346FFF772FC05E0FFF7FDFB72
:100CD0003A464346FFF7F9FB029A0AB181F0004118
:100CE000039AC2E90001B3E72DE9FF4F1F468DB01B
:100CF000D7E901464FF0FF382E2045464FF0000956
:100D00000B90B9696D1C0E988847396A82468847EE
:100D10000028F6D1BAF1FF3F0AD024F4D064002EA7
:100D200011DDBAF12B0F08D0BAF12D0F0BD102E073
:100D3000404611B08DE744F48064B9696D1C0E988B
:100D400088478246761E6946600501D52D2000E061
:100D50002B208DF8000001F1010B0DF1200809E0B6
:100D6000B9696D1C0E98884782460F9844F4007448
:100D7000761E0560002E02DDBAF1300FF0D00B991F
:100D80008A453ED144F0800406E00F99681CA9F121
:100D9000010944F400740860B9696D1C761E0E9850
:100DA000884782463028F0D02BE00B998A4505D140
:100DB000200603D444F08004761E18E0504608F064
:100DC000EFFF08B30DF11301761E44F400748B4558
:100DD00008D2AAF130000BF8010B200607D5A9F1C3
:100DE000010003E0200602D409F101008146A005BC
:100DF00002D50F99681C0860B9696D1C0E98884768
:100E00008246002ED1DC53E0002E51DDBAF1650F91
:100E100002D0BAF1450F4BD1A00549D5B9696D1C77
:100E200024F44074761E0E9888478246002E0CDD0E
:100E30002B2804D0BAF12D0F07D144F48074B9697E
:100E40006D1C0E9888478246761EE00501D52D213F
:100E500000E02B2108F8011BCDF82C8021E00DF1DA
:100E60002901761E44F4007488450CD2AAF13000A2
:100E700010F0FF0088F8000002D10B99884509D9CD
:100E800008F1010806E0E00501D5244801E042F23E
:100E90000F708146B9696D1C0E98884782460F987D
:100EA0000560002E04DD504608F07AFF0028D6D1F8
:100EB000F9690E988847FF208BF8000088F8000039
:100EC0000020069007904B466A4608A906A8FFF73F
:100ED00077FEA00502D46FF001002AE714F0240F7A
:100EE0000AD0E00714D1DDE906123868031D3B6023
:100EF0000068C0E900120BE0DDE90601FFF728FCFD
:100F00000146E00704D13868021D3A6000680160BC
:100F100028460EE7000014400000F03FF1D8FFFF24
:100F2000426842B1016811F8013B23B1521EC0E989
:100F30000012184670470121C160881E7047426840
:100F40005AB1C368016843B983688B4205D0491E12
:100F5000521CC0E90012002070474FF0FF3070476C
:100F60002DE9F05F82460078002715468B460AF18E
:100F70000104B946302801D09DB113E014F8010BEB
:100F80000127782803D0582801D045B10AE00DB1D7
:100F9000102D07D10027102514F8010B02E00825B9
:100FA00000E00A250026B0460EE005FB080005FB20
:100FB00006F1012701EB10461FFA80F8B6F5803FD5
:100FC00000D3B94614F8010B294600F018F80028A0
:100FD000EBDABBF1000F05D00FB1641E00E0544600
:100FE000CBF80040B9F1000F06D007F031F902212B
:100FF0000160C81EBDE8F09F48EA0640FAE73A28BB
:1010000000D2303820F02002412A01D3A2F137006B
:10101000884201D34FF0FF3070470EB540F23342A3
:1010200002920022CDE900221346FFF7C1FC03B073
:1010300000BD70B58C1810F8015B15F0070301D1E5
:1010400010F8013B2A1106D110F8012B03E010F82B
:10105000016B01F8016B5B1EF9D12B0705D400234E
:10106000521E0DD401F8013BFAE710F8013BCB1AF0
:10107000921C03E013F8015B01F8015B521EF9D5E5
:10108000A142D8D3002070BD10B5054800F066FC21
:10109000044800F063FCBDE81040034800F05EBC6B
:1010A0003C35002084350020CC350020454910B562
:1010B0004A6822F440324A604A6843681A434A60E8
:1010C00001684A6822F480724A6001684A680369CC
:1010D00042EA03224A6001684A6822F040724A608C
:1010E00001684A6883681A434A6001688A6822F482
:1010F00000628A6001688A68C3681A438A60816AEC
:101100006FF07062D14201688A6822F070628A6072
:1011100001688A680CD0836A1A438A6001688A6809
:1011200022F040528A6001688A68C36A1A4301E06B
:1011300022F040528A6001688A6822F002028A60C6
:1011400001688A68836942EA43028A60016A002969
:1011500001684A680FD042F400624A6001684A6838
:1011600022F460424A6001684A68174C436A04EB03
:1011700043331A4301E022F400624A600168CA6AFC
:1011800022F47002CA620168CA6A838B0F4C04EBB6
:1011900003531A43CA6201688A6822F400728A60A3
:1011A00001688A68036B42EA43228A6001688A68A0
:1011B00022F480628A6001688A68406942EA80207D
:1011C000886010BD0023014000E0FFFF0000F0FF39
:1011D0000146806B026C12F0500F03D0806BC26C22
:1011E00008461047016C41F40071016401688A6887
:1011F00012F0405F17D18269AAB9CA6A12F4700F5F
:1012000002D08A6852050ED44A6822F020024A6051
:10121000016C21F480710164016CC90403D4016C78
:1012200041F00101016400F07BBB806B402101644F
:10123000416C41F00401416400F08FBB806B00F011
:101240008BBB00002DE9F04188B000251E4690467A
:101250000395059503AF049506958DF80C1064224F
:101260000097CDE901624006000E0A4601462C4671
:101270000123084801F0B0FA30B16D1E04E0395D79
:1012800008F80410641CE4B2B442F8D308B028464D
:10129000BDE8F081143600203EB564258DE82C00B1
:1012A0004006000E0A46014600240123034801F0CF
:1012B00091FB00B1641E20463EBD000014360020A4
:1012C0000BF0AEBC00F092F8FCE70000014800F023
:1012D0007FBD0000D43B0020014800F079BD000034
:1012E000743B0020014800F073BD0000143B002057
:1012F000014800F06DBD0000943C0020014800F062
:1013000067BD0000F43C0020014800F061BD000012
:10131000343C0020014800F05BBD0000F43900209F
:10132000014800F055BD0000B43A0020014800F02B
:101330004FBD0000543A002001681823CAB2103A89
:10134000B2FBF3F2054B6FF30901032A9B5CC36503
:1013500000D9091D816508467047000074F0000837
:1013600010B5014600208B698A6A4FF0C07453B1F2
:10137000B3F5005F15D072B1012A0CD0022A0AD051
:10138000032A09D104E01AB1012A06D0022A03D1A6
:10139000C96AC90100D5012010BDC96AA142FAD0AD
:1013A00010BD002AF7D0012AF2D0022AF3D0032A76
:1013B000F3D010BD30B50468256825F4802525607C
:1013C000046863608368402B036803D099600068F9
:1013D000C26030BD9A600068C16030BD7047C0EB2C
:1013E00000108000401EFDD27047000002494FF4FB
:1013F00061700968486370471837002010B54FF4D2
:10140000006000F013FF4FF4805000F00FFFBDE8C4
:1014100010404FF4005000F009BF10B5202000F03C
:1014200005FF402000F002FFBDE81040802000F0E2
:10143000FDBE7047002229B101291AD002291BD014
:101440004FF440720E490B6823F440730B600B6835
:1014500013430B600A6822F0F8020A600A6802234C
:1014600003EBC00002430A60086840F48030086063
:1014700070474FF48072E5E74FF40072E2E7000036
:10148000103C0240064A136823F44073136013684B
:101490001360136843F0010313600170704700008C
:1014A000103C0240084910B50C6824F440740C60EC
:1014B0000C6844F440740C600C6844F001040C6047
:1014C0000260436010BD0000103C0240074A1368F0
:1014D00023F440731360136843F48073136013683C
:1014E00043F001031360018070470000103C02408C
:1014F000074A136823F440731360136843F40073BE
:101500001360136843F0010313600160704700002B
:10151000103C02401C490868C2061C4805D5C26937
:1015200042F01002C26110220A600A68920605D5D4
:10153000C26942F00802C26120220A600A685206AB
:1015400005D5C26942F00402C26140220A600A68FD
:10155000120605D5C26942F00202C26180220A6009
:101560000A68D20506D5C26942F00102C2614FF491
:1015700080720A600A68920705D5C26942F02002AB
:10158000C2610220086070470C3C0240903D002080
:1015900070B5114904460020C86100F02FFF0646CF
:1015A0000E4D09E0601C07D024B100F027FF801B1E
:1015B000A04201D9032070BD2868C003F2D4286876
:1015C000C00701D001202860286810F4F970F2D01B
:1015D000FFF7A0FF012070BD903D00200C3C0240B1
:1015E00008B50068009008BDF8B50546012600F072
:1015F000ADFD0C4C0C48E168814206D22A4600231E
:10160000022000F065FD20B1002600F057FD3046B5
:10161000F8BDE06801680091A94200D00026001DD5
:10162000E060F2E700000020000006080D480E49C7
:1016300090ED000A81ED000A0C4990ED010A81ED60
:10164000000A0B4990ED020A81ED000A094990ED6C
:10165000030A81ED000A90ED040A074880ED000AB4
:1016600070470000380900208C0000209000002006
:10167000440000202C0400203004002070470000AB
:1016800010B590F83C20012A1FD0012200F83C2F11
:101690000F4A536823F01F03536053680C682343B9
:1016A0005360536823F44043536053684C682343AA
:1016B0005360536823F470635360536889680B4325
:1016C000536000210170084610BD022010BD0000CB
:1016D00000230140F8B5134600220446009290F81A
:1016E0003C00012807D0012084F83C002068856870
:1016F000ED0702D011E00220F8BD856845F0010534
:1017000085602C482C4D0068B0FBF5F000EB4000E4
:1017100000E0401E00900028FBD120688568ED079E
:1017200046D0256C40F20166B54345F480752564CA
:101730004068400505D5206C20F4005040F48050EE
:101740002064206CC00404D5606C20F00600606446
:1017500000E0626484F83C20A26B1848D063A26B5E
:1017600017481064A26B1748D06422686FF002001B
:1017700010602068426842F0806242601248226B2A
:10178000002A426802D042F4005201E022F40052E2
:1017900042600A460C49A06B083100F053FC2068F7
:1017A000816811F0405F03D1816841F08041816020
:1017B0000020F8BDC808002040420F00D1110008E9
:1017C0003D1200082B1200080023014078B50024C8
:1017D000009490F83C20012A19D0012280F83C2086
:1017E0000A6807230568092A13D9EE680A3A02EB4A
:1017F000420293409E43EE600A788B680A3A02EBFD
:10180000420293400268D5682B43D36010E0022067
:1018100078BD2E6902EB420293409E432E610A7806
:101820008B6802EB42029340026815692B431361F7
:101830004A681F23072A13D205686E6B521E02EBFB
:10184000820293409E436E630B790A885B1E92B2BC
:1018500003EB83039A4003685D6B2A435A6327E0D6
:1018600005680D2A12D22E6BD21F02EB8202934022
:101870009E432E630B790A88DB1F92B203EB83032E
:101880009A4003681D6B2A431A6311E0EE6A0D3A11
:1018900002EB820293409E43EE620B790A880D3B75
:1018A00092B203EB83039A400368DD6A2A43DA624B
:1018B000174B0568154A9D4206D10D68122D03D1BC
:1018C000556845F48005556005689D4219D1114D54
:1018D0000B68AB4201D0112B13D1536843F40003C2
:1018E00053600968A9420CD10B490C4A0968B1FB45
:1018F000F2F101EB8101490000E0491E009100294D
:10190000FBD180F83C40002078BD0000002301405E
:101910000020014012000010C808002040420F00C3
:1019200010B50A4C002021462060094800680CF0E0
:101930008FFD2068002807D006494FF080500860CE
:10194000BFF34F8FBFF36F8F10BD00007C080020E6
:101950009008002004ED00E07047704770B5044621
:10196000006801684268C1F34001C2F3401251B3FC
:101970004AB3216CC90603D4216C41F4007121647F
:10198000816811F0405F17D1A169A9B9C16A11F44A
:10199000700F02D0816849050ED4416821F0200102
:1019A0004160206C20F480702064206CC00403D45B
:1019B000206C40F0010020642046FFF7B1FF216851
:1019C0006FF012000860206801684268C1F380016E
:1019D000C2F3C01289B382B3216CC90603D4216C4F
:1019E00041F400512164816811F4401F1ED1816BC4
:1019F00011F4401F02D08168490517D44168490598
:101A000014D4816811F0405F10D1A16971B94168A7
:101A100021F080014160206C20F480502064206C13
:101A2000C00503D4206C40F0010020642046FFF77D
:101A300025FE21686FF00C0008602068016842688C
:101A400011F0010FC2F380120ED06AB10068C00716
:101A50000AD0206C40F480302064204600F046F824
:101A600021686FF001000860206801684268C1F3D6
:101A70004011C2F3806200290DD0002A0BD0616CA6
:101A800041F0020161646FF0200505602046FFF718
:101A900064FF2068056070BD70B504004FF000055C
:101AA00003D0206C002610B107E0012070BD6664F1
:101AB00084F83C60204600F01BF8206CC00610D46F
:101AC000206C20F4885040F0020020642046FFF78C
:101AD000EDFA6664206C20F0020040F00100206402
:101AE00000E0012584F83C60284670BD7047000086
:101AF0002DE9F04F87B0064614216846FEF726FC14
:101B000071497248DFF8BCC1336800246E4A143949
:101B1000032507154FF0020B4FF480584FF480490E
:101B20004FF4003A63454FD1136843F48073136058
:101B3000126802F4807205920A6842F004020A6098
:101B40000A6802F0040205920A6842F001020A6083
:101B50000A6802F0010205920A6842F002020A6075
:101B60000968029401F0020105910821CDE90015F0
:101B7000694600F067FB1020CDE900056946029434
:101B8000534800F05FFBCDF800B0CDE90154694641
:101B9000504800F057FB514D4F48E5E802044F48CC
:101BA00010C5A5E8900365E8074A6C6281E0B5635B
:101BB000002205211220AE6301F074F8122001F01A
:101BC00065F807B0BDE8F08FDFF814C1634535D183
:101BD000136843F400731360126802F400720592F4
:101BE0000A6842F004020A600A6802F004020592E0
:101BF0000A6842F001020A600968029401F00101DA
:101C000005912421CDE90015694600F01BFBCDF8B4
:101C100000B0CDE9015469462D4800F013FB2E4871
:101C2000304D303001C54FF00070E5E802042D481A
:101C3000A5E8900365E8074A6C623AE0DFF8A8C0BF
:101C40006345BED1136843F480631360126802F4E5
:101C5000806205920A6842F004020A600A6802F093
:101C6000040205920A6842F001020A6009684FF016
:101C7000010B01F00101CDF800B00591CDE901544F
:101C8000694600F0DFFACDF800B0CDE901546946AD
:101C90000F4800F0D7FA1048144D183001C54FF026
:101CA0008060E5E802041148A5E8900365E8074A6A
:101CB0006C6200F05DF900283FF479AFFFF7B9FBE3
:101CC00075E700000020014044380240000802404F
:101CD000000002400004024010640240F439002079
:101CE00000210140543A002000220140B43A002073
:101CF00018B50021009190F83C20012A07D001225C
:101D000080F83C2002689368DB0702D011E00220D3
:101D100018BD936843F001039360204A204B12687A
:101D2000B2FBF3F202EB420200E0521E0092002AE4
:101D3000FBD102689368DB072DD0036C40F201648D
:101D4000A34343F48073036453685B0505D5036CB8
:101D500023F4005343F480530364036CDB0404D581
:101D6000436C23F00603436400E0416480F83C10B8
:101D70000C496FF02203136049680068C90602D05D
:101D80000949884207D1816811F0405F03D1816819
:101D900041F080418160002018BD0000C80800208B
:101DA00040420F00002301400020014090F8351010
:101DB000022903D08021416501207047052180F868
:101DC00035100068016821F00101016000207047B2
:101DD0002DE9F84304464FF00009CDF80090634820
:101DE0004FF41651A56D0068B0FBF1F72E6894F81A
:101DF0005C10082000FA01F131420FD021680A6816
:101E000052070BD50A6822F004020A6094F85C10AD
:101E10008840A860606D40F00100606594F85C1037
:101E20004FF0010808FA01F0304208D021684969F2
:101E3000090604D5A860606D40F00200606594F862
:101E40005C1004208840304208D021680968890766
:101E500004D5A860606D40F00400606594F85C10E3
:101E600010208840304218D021680968090714D52D
:101E7000A86020680168490304D50068000308D5FC
:101E8000A16C07E00168C90503D4016821F00801CD
:101E90000160216C09B12046884794F85C1020202D
:101EA0008840304231D021680968C9062DD5A86024
:101EB00094F8350005282068016806D0490347D505
:101EC000006800031DD4616C1CE021F01601016064
:101ED0002068416921F080014161206C08B9A06C43
:101EE00020B12068016821F00801016094F85C10BD
:101EF0003F208840A86084F8349084F83580216DB4
:101F00001FE0E16B09B120468847606D00282BD0A7
:101F1000606DC00714D0052084F835002068016882
:101F200021F0010101600098401C0090B84203D8E4
:101F300020680068C007F6D184F8349084F83580B2
:101F4000E16C002910D001B02046BDE8F0430847FD
:101F50000168C905D5D4016821F01001016084F839
:101F6000349084F83580CCE7BDE8F883C8080020B9
:101F70002DE9F041044600F041FA06465CB1002527
:101F800084F83450022084F835002068016821F07C
:101F9000010101600DE00120BDE8F08100F02EFAA2
:101FA000801B052805D920206065032084F83500B2
:101FB000F2E720680068C007F0D122681168204865
:101FC0000140D4E901031843D4E9033633431843ED
:101FD00063691843A3691843E3691843236A1843E4
:101FE0000843616A042903D1D4E90B131943084358
:101FF000106020684069666A20F0070130460E4391
:10200000012704280CD1A06A0643E06A40B12046AB
:10201000FFF7A6F920B14020606584F83570BAE773
:10202000206846612046FFF787F994F85C203F213D
:1020300091408160656584F835700020ACE7000050
:102040003F8010F02DE9F0410446866D90F8340091
:10205000002501280DD0012084F8340094F8357053
:102060000020012F07D084F8340002252846BDE85F
:10207000F0810220FBE7022784F835706065204676
:10208000FFF798F994F85C103F208840B060206812
:10209000016841F0160101602068416941F080014A
:1020A0004161206C20B12068016841F008010160A5
:1020B0002068016841F001010160D7E70348016829
:1020C00041F000410160002070470000103C0240D8
:1020D0002DE9F0471B4E05461446307E1F468946C3
:1020E000012808D0012030764CF250384046FFF7E6
:1020F0004FFA18B114E00220BDE8F0879DB1012D20
:1021000016D0022D19D022463B464846FFF7CAF9A1
:102110004046FFF73DFA0C490A6822F001020A60C6
:1021200000213176E8E7E1B24846FFF7ABF9EFE787
:10213000A1B24846FFF7CAF9EAE721464846FFF749
:10214000D7F9E5E7903D0020103C02400749002008
:102150000A68002A09DA054A054B0C3A1360054B58
:1021600013600968002900DA01207047103C024022
:1021700023016745AB89EFCD2DE9F041244CDFF811
:10218000948000254FF0805620280BD031148842CF
:1021900037D1214800F028F9A8B1BDE8F0411F4827
:1021A00001F0B7BB1A49E5600C31E06A0CF050F958
:1021B000E068002805D0C8F80060BFF34F8FBFF378
:1021C0006F8FBDE8F081154F154839680078496A6E
:1021D000C0EB00400844134908600D49A560083170
:1021E000606B0CF035F9A06828B1C8F80060BFF347
:1021F0004F8FBFF36F8F094801F097FB3868456236
:10220000DFE7B0F5005FDCD1074901200870D8E7AF
:102210007808002004ED00E0000002408038002033
:10222000990400209C04002018010020044910B5E6
:102230000A68024202D00860FFF79EFF10BD00004E
:10224000143C01402DE9F84FDFF874B100224FF043
:1022500001084FF0030A4FF00F090BF1040E00BF05
:102260000B6808FA02F42340A3426ED14D68022D98
:1022700001D0122D0ED1D50800EB850CDCF82050D2
:102280005607F70E09FA07F6B5430E69BE402E430E
:10229000CCF82060066855000F790AFA05FC07F0B3
:1022A000030726EA0C06AF40374307604E68012E4D
:1022B00005D0022E03D0112E01D0122E0ED1866829
:1022C000CF6826EA0C06AF40374387604668A643CE
:1022D0000C79C4F30014944034434460C4688E689D
:1022E00024EA0C04AE402643C6604C68E40060D586
:1022F000344C256845F480452560246822F00305A8
:1023000004F480440094304C2E19D6F80848950700
:102310002F0F09FA07F5AC432C4DA84201D1002537
:102320001FE02B4DA84201D101251AE0294DA842FA
:1023300001D1022515E0284DA84201D1032510E066
:10234000264DA84202D104250BE032E0244DA842DC
:1023500001D1052505E0234DA84201D1062500E065
:102360000725BD402543C6F80858DBF800405D4608
:102370004E689C43F60300D51C432C60DEF80040F9
:1023800075464E689C43B60300D51C432C600C4D2B
:1023900008352C684E689C43F60200D51C432C601F
:1023A000074D0C352C684E689C43B60200D51C4383
:1023B0002C60521C102AFFF453AFBDE8F88F0000C8
:1023C000003C01404438024000300140000002401F
:1023D0000004024000080240000C024000100240CD
:1023E00000140240001802400069084000D001209B
:1023F00070470AB1816170470904FBE701488068B2
:1024000070470000BC0800207047704770B5044654
:102410000068456946682D490D4208D0F10506D58A
:10242000216C41F0010121646FF48071416115F468
:10243000813F09D0F00507D5206C40F002002064F0
:1024400021686FF40070486115F4823F28D0F005D0
:1024500026D594F83E30628D94F83D00216B202BF8
:1024600008D13AB921280ED029280CD0282801D12A
:10247000212908D0206C40F00400206494F83E002C
:10248000102804D008E0204602F0CCFD08E02068C7
:10249000016841F40071016021686FF48060486157
:1024A00015F4843F09D0F00507D5206C40F00800F2
:1024B000206421686FF400604861206C002804D01B
:1024C0002046BDE8704002F031BA70BD0001010045
:1024D0002DE9F05F02680446D2F818805569566805
:1024E00090F83E007449DFF8D0A1DFF8CCB1DFF8F6
:1024F000CC918F1C0AF17E0A0BF13E0B102812D0F2
:10250000402810D00D425BD0B00559D593692046C4
:102510000021DB435B0700D501219269D2431206FB
:1025200048D5828947E015F0011F05D0B00503D5D5
:10253000204602F081FC10E05F48801D054205D076
:10254000B00503D5606CC0B2106106E00D4204D046
:10255000B00502D5204602F0F5FB18EA090F14D0A9
:1025600015EA0A0F08D0700506D53D4206D120466F
:10257000BDE8F05F02F062BB3D421FD0B0051DD543
:102580002046BDE8F05F02F018BB15EA0B0F08D03B
:10259000700506D53D4206D12046BDE8F05F02F049
:1025A000CABA3D420AD0B00508D52046BDE8F05F62
:1025B00002F062BA028B92B2FFF727FFBDE8F09FEC
:1025C0003D480E30054206D0B00504D52046BDE892
:1025D000F05F02F069BD18EA090F4FF0280134D00E
:1025E00015EA0A0F23D0700521D53D4221D194F878
:1025F0003D302046628D002AE0D0426A541C44627D
:10260000046812782261428D521E4285428D002A52
:10261000D4D1292BD2D10268536823F4806353604C
:102620002122026380F83D1000F0B7FAC6E73D4270
:10263000C4D0B005C2D5608D0028BFD0606A411CEF
:10264000616221680078086131E015EA0B0F22D041
:10265000700520D53D4220D194F83D302046648D50
:10266000002CABD01469426A551C45621470428D2F
:10267000521E4285428D002AA0D12A2B9ED102688B
:10268000536823F4806353602222026380F83D1074
:1026900000F082FA92E73D4290D0B0058ED5608D71
:1026A00000288BD01169606A421C62620170608DE3
:1026B000401E608582E70000020001000400100057
:1026C0007047000070B5040004D094F83D00002568
:1026D00010B106E0012070BD84F83C50204600F0A7
:1026E00017FA242084F83D002068016821F00101D8
:1026F000016000F0F9FB33492268B0FBF1F1516051
:10270000314A6368934206D94FF4967359434FF4A4
:102710007A73B1FBF3F12368491C19626168914235
:102720000BD84900B0FBF1F2C2F30B02042A01D22C
:10273000042019E0B0FBF1F016E0A3689BB301EBB5
:10274000C10202EB0112B0FBF2F242F48042120528
:1027500030D04BB301EBC10202EB0111B0FBF1F041
:1027600040F4804040F400402168C861D4E907018A
:10277000084321680860D4E9031008432168886091
:10278000D4E9050108432168C8602068016841F068
:10279000010101602564202084F83D00256384F850
:1027A0003E50002070BD00E006E001EB4102B0FBAE
:1027B000F2F2CCE70120D7E701EB4101B0FBF1F0E9
:1027C000D0E7000040420F00A0860100704770472C
:1027D00070477047704700002DE9FF4F83B09A465D
:1027E000DDE9118793460446DDF84090FFF706FEC9
:1027F000054694F83D00202874D11923012272491E
:102800002046009502F0E5FC0028F5D194F83C0044
:10281000012867D0012084F83C0020680168C907BE
:1028200003D1016841F0010101602068016821F4D1
:1028300000610160222084F83D00402084F83E00C1
:1028400000262664C4F82490A4F82A805F48E06239
:10285000608D2085CDE9007553465A46204604997F
:1028600002F017FB28B1206C84F83C60042843D0A8
:1028700076E0208DC8B1012820D00228206823D01E
:10288000416980690090208D03286BD801282AD0E7
:102890004F4902283B464FF0000200955BD0884626
:1028A000204602F096FCE8BB40E02068416981695F
:1028B0000091016841F40071016076E020680168D0
:1028C00021F480610160F0E7016821F4806101601A
:1028D0002068016841F400610160206841698069F5
:1028E000009062E06EE02A463946204602F0E6FC9F
:1028F00030B1206C202833D0012007B0BDE8F08F24
:10290000206847E02068016841F400710160206898
:102910000169606A421C62620170208D401E208540
:10292000608D00E01CE0401E6085E9E720680168DA
:1029300021F48061016020680169606A421C626262
:102940000170208D401E2085608D401E60853B46B5
:10295000002241460095204602F03BFC0028D1D0E1
:102960000320CAE72A463946204602F0A7FC002881
:10297000BFD120680169606A421C62620170208DCB
:10298000401E2085608D401E608520684169C943D6
:1029900049070AD40169606A421C62620170208D95
:1029A000401E2085608D401E6085208D00287FF4AC
:1029B0006AAF202084F83D0084F83E6084F83C60D3
:1029C00000209AE7022098E7020010000000FFFFB5
:1029D000040001002DE9FF4F83B09A46DDE911871D
:1029E00093460446DDF84090FFF708FD064694F84C
:1029F0003D0020287DD1192301224349204600961D
:102A000002F0E7FB00287CD194F83C00012878D044
:102A1000012084F83C0020680168C90703D10168DF
:102A200041F0010101602068016821F4006101604A
:102A3000212084F83D00402084F83E0000252564D4
:102A4000C4F82490A4F82A803048E062608D208584
:102A5000CDE9007653465A462046049902F092FA90
:102A600080B3206C84F83C50042848D008E03246FB
:102A70003946204602F053FC30B1206C042839D08E
:102A8000032007B0BDE8F08F606A411C61622168D5
:102A900000780861208D401E80B22085618D491E1E
:102AA000618521684A69D24352070BD468B1606AD4
:102AB000421C626200780861208D401E2085608D76
:102AC000401E6085208D0028D1D1324639462046EF
:102AD00002F058FB0028D0D154F83D0B016841F4B6
:102AE00000710160202004F81E09E5776577002059
:102AF000C7E706E02068016841F400710160012029
:102B0000BFE70220BDE70000020010000000FFFF49
:102B100010B586B0044614216846FDF717FC1B4922
:102B20002068884230D11A48016841F002010160F2
:102B30000068694600F002000590C0200090122055
:102B4000019001200290032003900420049011487A
:102B5000FFF778FB0E481030016841F40011016066
:102B60000068002200F40010059005211F2000F0ED
:102B700099F81F2000F08AF800220521202000F09B
:102B800091F8202000F082F806B010BD00540040FB
:102B900030380240000402407047704702488168A4
:102BA0000278114481607047BC0800200B4810B5C2
:102BB000016841F400710160016841F480610160C5
:102BC000016841F480710160032000F08BF800205F
:102BD00000F006F800F03EF8002010BD003C024076
:102BE00010B5014688B00022192000F05BF81920CA
:102BF00000F04CF813480024016841F400310160F2
:102C0000006805A900F400300690684600F04CF911
:102C100000F07AF90C494000B0FBF1F10C480B4A86
:102C2000491E026040F2E732C0E90324C0E9011402
:102C300000F0C3FD10B1012008B010BD044800F041
:102C400068FEF9E74438024040420F00004401406A
:102C5000543D00200C4882B0016841F4804101607D
:102C6000006800F4804000900748001F016841F0B0
:102C7000805101600068002200F0805000900F2118
:102C8000901E02B000F00EB84438024000F01F025F
:102C9000012191404009800000F1E020C0F80011BE
:102CA00070470000F0B40E4B1B680C46C3F30223C0
:102CB000C3F10705042D00D90425191D072901D2E8
:102CC000002300E0DB1E012606FA05F1491E214023
:102CD00099409E40761E16403143F0BC02F026BE5D
:102CE0000CED00E0064900F0070208684FF6FF030C
:102CF000184040EA0220034A104308607047000071
:102D00000CED00E00000FA052DE9F84317480168D2
:102D100041F0805101600068154F00F0805001269D
:102D200000903E64FFF76AFB05464FF47A78114C39
:102D300005E000BFFFF762FB401B40450DD860680F
:102D4000C003F7D57E64FFF759FB0546464607E00A
:102D5000FFF754FB401BB04202D90320BDE8F883C3
:102D600060688003F4D50020F8E700004038024096
:102D700000000E42007000402DE9F0470E460500AD
:102D800065D0DFF81481D8F80000F7B200F00F002A
:102D9000B04207D288F80070D8F8000000F00F00A9
:102DA000B04254D128683D4C810712D5400703D565
:102DB000206840F4E05020602878000703D52068A0
:102DC00040F4604020602068A96820F0F0000843CB
:102DD00020602878C0072DD030496868083901285C
:102DE00012D0022813D0032811D0096889070029BE
:102DF0002DDA216821F0030101432160FFF7FEFA7B
:102E0000814641F2883A0EE009688903EFE70968D4
:102E10008901ECE7FFF7F2FAA0EB0901514502D96D
:102E20000320BDE8F0872068696800F00C00B0EB73
:102E3000810FEFD1D8F80010404601F00F01B142E8
:102E400007D90770006800F00F00B04201D00120E0
:102E5000E7E72878400705D52068E96820F4E050C6
:102E6000084320602878000706D52068296920F4E7
:102E7000604040EAC100206000F056F82168084A2E
:102E8000C1F30311515CC840064908600020FFF7F8
:102E9000A7FE0020C5E70000003C024008380240C1
:102EA0007CF00008C80800200F2202600C4A13685A
:102EB00003F003034360136803F0F00383601368B7
:102EC00003F4E053C36012684FF4E05303EAD20204
:102ED00002610448006800F00F00086070470000BD
:102EE00008380240003C024004480549006809686F
:102EF000044AC1F38221515CC8407047C8080020D1
:102F0000083802408CF00008044805490068096848
:102F1000044AC1F34231515CC8407047C8080020E0
:102F2000083802408CF00008224810B5006810F004
:102F30000C02214815D04110042A11D01D4C241F29
:102F4000082A0FD00C2A0CD12268236802F03F0215
:102F50005B0221D52068C0F38810A0FB010120E0AE
:102F6000084610BD2268236802F03F025B0205D5C7
:102F70002068C0F38810A0FB010104E02168C1F3C0
:102F80008811A1FB00010023FDF796F92168C1F328
:102F90000141491C49000AE02168C1F38811A1FBE5
:102FA00000010023FDF788F92168C1F30271B0FB2D
:102FB000F1F010BD083802400024F4002DE9F84F6C
:102FC0000546DFF828B30078ABF10407C007A7F186
:102FD000040451D0DBF800105846C1F381010129E7
:102FE0000FD00168C1F38101022902D13968490279
:102FF00007D40068C0F38100032809D13868400273
:1030000006D52068800337D56868002872D033E081
:103010006868B0F5803F10D0B0F5A02F206810D0C0
:1030200020F480302060206820F4802020606868D0
:10303000A8B1FFF7E3F906460DE0206840F48030C0
:10304000F4E740F480202060F7E700BFFFF7D6F9EF
:10305000801B642878D820688003F7D50CE0FFF740
:10306000CDF9064605E000BFFFF7C8F9801B6428CC
:10307000F0D820688003F7D42878DFF874928007AE
:103080004FF0000A46D5DBF80010584611F00C0F3F
:103090000FD00168C1F38101022902D139684902C8
:1030A00007D50068C0F38100032809D138684002C1
:1030B00006D42068800715D5E86801281AD111E0E8
:1030C000E868C0B10120C9F80000FFF797F906468B
:1030D00005E000BFFFF792F9801B0228BAD82068EC
:1030E0008007F7D52068296920F0F80040EAC10080
:1030F00020600FE0F7E0C9F800A0FFF77FF906466F
:1031000005E000BFFFF77AF9801B02281CD8206871
:103110008007F7D42878000727D5DFF8D0817548D5
:10312000696908F16C0881B101210160FFF766F956
:10313000064604E0FFF762F9801B022804D8D8F89D
:1031400000008007F6D510E089E0C0F800A0FFF786
:1031500055F9064605E000BFFFF750F9801B02282D
:103160007DD8D8F800008007F6D42878400769D5C4
:103170005E484FF0000838300068C0000BD45B4850
:103180003830016841F08051016000684FF001085B
:1031900000F080500090584E3068C00511D430685F
:1031A00040F480703060FFF729F9009006E000BF1E
:1031B000FFF724F90099401A022850D83068C0055A
:1031C000F6D54A4EA868683601280FD00528306821
:1031D00010D020F001003060306820F00400306032
:1031E000A868B8B1FFF70AF900900FE0306840F026
:1031F0000100F4E740F004003060F7E7FFF7FEF865
:103200000099411A41F28830814264D830688007C1
:10321000F4D50EE0FFF7F2F8009007E0FFF7EEF8C4
:103220000099411A41F28830814254D830688007B1
:10323000F4D4B8F1000F05D02C483830016821F0E3
:1032400080510160A869A8B3DBF80010C1F38101C7
:10325000022948D00228C9F860A005D000E03AE071
:10326000FFF7CCF8054639E0FFF7C8F8064604E05A
:10327000FFF7C4F8801B02282DD820688001F7D4FE
:10328000F5E907010843E9681C4A490802EB0141D6
:10329000AA6841EA82110843297C40EA0160297D3D
:1032A00040EA017038600120C9F86000FFF7A6F815
:1032B000054606E015E000BFFFF7A0F8401B022816
:1032C00009D820688001F7D50BE000BFFFF796F81A
:1032D000401B022802D90320BDE8F88F2068800136
:1032E000F4D40020F8E70120F6E700000838024097
:1032F00000004742800E4742007000400000FFFF80
:103300007047000038B504460068426881684B0683
:1033100005D4CB0703D0530601D5216C04E08B07FD
:1033200007D5130605D5616C01B02046BDE83040D5
:10333000084711F4B07F48D0930646D54B060AD50E
:1033400094F85130032B3DD0636D43F00403636563
:10335000C368836800938B0609D5636D43F001034E
:10336000636583680093036823F040030360C80526
:1033700006D5606D40F008006065206880680090A8
:10338000606D002821D02068416821F0E001416093
:10339000012084F85100900718D02068416821F07E
:1033A000030141600B4DE06C18B10565E06CFEF760
:1033B000FDFCA06C002808D00565A06CBDE8384075
:1033C000FEF7F4BCC1688068009038BD2046FFF766
:1033D00097FF38BD7959000870B5040005D0002565
:1033E000A56294F8510010B106E0012070BD84F888
:1033F0005050204600F030F8022084F85100206838
:10340000016821F040010160D4E901010843D4E9D9
:1034100003121143084361690843218B01F40071D1
:103420000843E1690843216A0843A16A0843216807
:103430000860A069042101EA1040616A084321681C
:1034400048602068C16921F40061C161656501209F
:1034500084F85100002070BD2DE9F04786B0074682
:1034600014216846FCF772FF4848DFF81CC13B682E
:103470000024464A1038022503260721DFF8109160
:10348000DFF810A14FF4806863454BD1136843F413
:1034900080431360126802F480420592026842F091
:1034A00004020260026802F004020592026842F01F
:1034B000020202600068009500F00200CDE90410ED
:1034C0000396CDE9015469464846FEF7BBFE052048
:1034D000CDF80080CDE90360CDE90154694650463E
:1034E000FEF7B0FE2D4D2C48E5E802044020A5E88B
:1034F00011012A4845F81449AC61EC612C626C62F8
:10350000FEF736FD08B1FDF794FFBD6400220521EA
:103510002420AF63FFF7C6FB2420FFF7B7FB06B0FC
:10352000BDE8F0871E4FBB42F9D1136843F4004356
:103530001360126802F400420592026842F002022F
:103540000260026802F002020592026842F0040280
:1035500002600068029400F004000590CDE9036168
:103560000120CDE9000569465046FEF76BFE0620B6
:10357000CDF80080CDE90360CDE9015469464846A5
:10358000FEF760FECBE70000003800404038024004
:10359000000802400004024070600240143B00201A
:1035A000003C00402DE9F84F044690F850000026FA
:1035B000994617460D4601280DD04FF0010B84F8AF
:1035C00050B0FEF71BFF804694F85100B246012828
:1035D00004D0022694E00220BDE8F88F002D7BD0B5
:1035E000002F79D0032084F85100C4F854A025633B
:1035F000A786E786C4F838A0A4F83CA0A4F83EA0AB
:10360000C4F844A0C4F840A0A068B0F5004F04D1AD
:103610002068016841F48041016020680168490622
:1036200003D4016841F040010160E068B0F5006F2B
:10363000606804D030B3E08E012823D03EE010B1A2
:10364000E08E01281AD135F8021B206805E02068B9
:103650008168890706D535F8021BC160E08E401EDF
:10366000E0860BE0B9F1000F34D0B9F1FF3F05D08F
:10367000FEF7C4FEA0EB080149452BD2E08E0028DE
:10368000E5D11EE0216815F8010B087306E02068FB
:103690008168890706D515F8011B0173E08E401E6D
:1036A000E0860BE0B9F1000F14D0B9F1FF3F05D06F
:1036B000FEF7A4FEA0EB080149450BD2E08E0028DE
:1036C000E5D14B46012202212046CDF8008002F0D0
:1036D0005BF910B1032613E011E04246494620464B
:1036E00002F03AF918B101262020606508E0A068D0
:1036F00018B92068C16880680090606D00B101262B
:1037000084F851B084F850A0304665E770477047A0
:1037100010B590F83820012A25D0012280F83820F1
:10372000CA688C6822F4407222434C6822F480629A
:1037300022430C6822F4006222430C6922F4805276
:1037400022434C6922F4005222438C6922F48042C5
:10375000224322F40041026800232143516480F88F
:103760003830002010BD022010BD30B590F8382050
:10377000012A20D0012280F83820022380F8393035
:1037800003685C6824F070045C6003685C680D6822
:103790002C435C6003689C6824F080049C60036890
:1037A0009C6849680C439C6080F83920002180F8AF
:1037B0003810084630BD022030BD10B5040003D0DB
:1037C00094F8390010B107E0012010BD002084F802
:1037D0003800204600F00CF8022084F83900211D42
:1037E000206804F085F8012084F83900002010BD1D
:1037F00008B53A4A01683A4891420ED1016841F051
:10380000100101600068002200F010000090052106
:103810003620FFF747FA36205AE0324A91420ED15D
:10382000016841F0200101600068002200F02000E2
:10383000009005213720FFF735FA372048E02A4A63
:10384000914210D12648001D016841F48021016099
:103850000068002200F48020009005211A20FFF764
:1038600021FA1A2034E0214A91420ED1016841F038
:10387000400101600068002200F040000090052136
:103880002B20FFF70FFA2B2022E0194A91420ED18C
:10389000016841F0800101600068002200F08000B2
:1038A000009005212C20FFF7FDF92C2010E0114A93
:1038B000914211D1016841F48071016000680022D9
:1038C00000F48070009005212D20FFF7EBF92D20EA
:1038D000BDE80840FFF7DAB908BD0000001000405D
:1038E00040380240001400400048014000180040E9
:1038F000001C004000200040022180F839100168BF
:103900000A6842F001020A60012180F839100020A3
:1039100070470168CA6842F00102CA600068016825
:1039200041F001010160002070470168CA6822F07F
:103930000102CA600068016A41F21112114207D106
:10394000016A9210114203D1016821F00101016066
:103950000020704770B5044690F83800012817D051
:10396000012584F83850022084F8390020688268E4
:1039700022F0770222F47F4282600868502837D014
:103980000DDC202859D005DC88B3102841D151E046
:10399000022070BD302853D040283AD13FE0602843
:1039A0002ED070280BD0B0F5805F03D0B0F5005F4B
:1039B0002FD110E02068816821F0070115E0CB6865
:1039C000D1E90121206803F0FEFF2168886840F0FA
:1039D000770088601DE0CB68D1E90121206803F001
:1039E000F2FF2068816841F48041816011E01EE0AF
:1039F000CA684968206804F0EDF85021206806E0A4
:103A0000CA684968206804F039F96021206803F029
:103A1000E4FF84F83950002084F8380070BDCA688B
:103A20004968206804F0D6F840212068EFE70021BB
:103A30002068ECE710212068E9E720212068E6E70C
:103A400030212068E3E72DE9F0410D46040003D062
:103A500094F8390018B108E00120BDE8F081002099
:103A600084F83800204600F039F8022084F8390044
:103A70002068816821F007018160211D206803F022
:103A800037FF226890689169166A2B68AF69034313
:103A900040F20330814341EA0721A868EF690843F7
:103AA0004FF6FC418843E96840EA07200143286952
:103AB0002F6A000140EA0730084369686D6926F003
:103AC000AA0646EA0515294393602268906120689A
:103AD0000162012084F839000020BEE770B586B08D
:103AE000054614216846FCF731FC214928688842C4
:103AF0003BD120480026016841F0020101600068C6
:103B000000F0020005901B481038016841F00101E7
:103B100001600068032100F001000590C0200090C2
:103B20000220CDE90106CDE9031069461248FEF7EF
:103B300089FB134C114820604FF02060C4E9010656
:103B40004FF48060C4E90360400060618000C4E914
:103B500006060001C4E908062046FEF709FA08B186
:103B6000FDF767FCEC62EC61A56306B070BD000078
:103B70000004004040380240000002404060024023
:103B8000743B002010B50446006891B1042904D0AC
:103B90000122002103F00CFF206801225FF00401E4
:103BA00003F006FF2068016841F001010160002078
:103BB00010BD01220021F3E710B5017E022904D1D6
:103BC000042100F02BFB0149086010BDF003002028
:103BD0002DE9F041044690F838000D4601283DD00B
:103BE000012684F83860022084F83900AAB3042A38
:103BF00046D02068082A55D0D5E90027E968036A2D
:103C000023F480530362D0F81CC0036A2CF4407C78
:103C10004CEA07274FF6FF7C27F470470CEA013186
:103C200039434FF4204723F4204307EA02321A4372
:103C3000C16102622068C16921F44061C1612068EC
:103C4000C169AA6841EA0221C0F81C1084F83960F1
:103C5000002084F83800BDE8F08101E00220FAE796
:103C6000D5E90012EB68206803F0C6FF206881697F
:103C700021F00C01816120688169AA6811430FE07D
:103C8000D5E90012EB68206804F00AF82068816921
:103C900021F44061816120688169AA6841EA0221BA
:103CA0008161D3E7D5E9002C2F7B016A21F4807173
:103CB0000162C169036A21F0030141EA0C0121F0AC
:103CC000F00C39074FF420674CEA116123F42063AC
:103CD00007EA02221A43C16102622068C16921F029
:103CE0000C01C1612068C169AA681143ACE710B535
:103CF000040003D094F8390010B107E0012010BD92
:103D0000002084F83800204600F00CF8022084F8E7
:103D10003900211D206803F0EBFD012084F83900F3
:103D2000002010BD704710B50268044631B1042967
:103D300008D0082915D00C2908D116E0D06840F029
:103D4000020002E0D06840F00400D0600122206848
:103D500003F02EFE2068016841F00101016000209F
:103D600010BDD06840F00800EFE7D06840F01000C8
:103D7000EBE770B50446006801694FF00005C943E0
:103D8000890715D4C168C943890711D4E91E0161A7
:103D900001202076206880698007204602D0FFF746
:103DA0000BFF04E000F0D8F8204600F0B1F92576CA
:103DB00020680169C943490717D4C168C943490745
:103DC00013D46FF00401016102202076206880691D
:103DD00010F4407F204602D0FFF7EEFE04E000F032
:103DE000BBF8204600F094F9257620680169C943A4
:103DF000090716D4C168C943090712D46FF0080136
:103E00000161042020762068C0698007204602D026
:103E1000FFF7D2FE04E000F09FF8204600F078F9AA
:103E2000257620680169C943C90617D4C168C9430A
:103E3000C90613D46FF010010161082020762068B4
:103E4000C06910F4407F204602D0FFF7B5FE04E0C1
:103E500000F082F8204600F05BF9257620680169C1
:103E6000C943C90708D1C168C943C90704D1891E1C
:103E70000161204600F06AF920680169C94309061A
:103E800009D4C168C943090605D46FF080010161F6
:103E90002046FFF73BFC20680169C943490609D465
:103EA000C168C943490605D46FF04001016120464D
:103EB00000F0F7F920680169C94389060BD4C1688D
:103EC000C943890607D46FF0200101612046BDE88F
:103ED0007040FFF71CBC70BD30B587B0044614219C
:103EE0006846FCF733FA2468174D00211748022270
:103EF0000123AC4210D1046844F00104046000685E
:103F000000F001000590D0010090CDE90121CDE93C
:103F1000031369460E4812E0B4F1804F11D10468D2
:103F200044F002040460006800F0020005900420E0
:103F30000090CDE90121CDE9031369460548FEF75C
:103F400081F907B030BD0000000001403038024068
:103F50000000024000040240704770B5044690F82B
:103F600038000D4601280DD0012684F83860022063
:103F700084F8390042B1042A18D0082A2AD00C2A21
:103F80004DD139E0022070BD206803F02FFD20687C
:103F9000816941F0080181612068816921F0040193
:103FA0008161206881692A69114311E0206803F06A
:103FB00049FD2068816941F400618161206881695F
:103FC00021F480618161206881692A6941EA0221C6
:103FD000816124E0206803F067FD2068C16941F039
:103FE0000801C1612068C16921F00401C161206834
:103FF000C1692A69114311E0206803F085FD20683A
:10400000C16941F40061C1612068C16921F4806126
:10401000C1612068C1692A6941EA0221C16184F84D
:104020003960002084F8380070BD10B5040003D05A
:1040300094F8390010B107E0012010BD002084F889
:104040003800204600F00CF8022084F83900211DC9
:10405000206803F04DFC012084F83900002010BDD9
:1040600010B586B0044614216846FCF76FF9254A5E
:1040700021680020914217D12348016841F00101D5
:1040800001600068002200F001000590114619202F
:10409000FEF708FE1920FEF7F9FD002205211A207F
:1040A000FEF700FE1A2029E0B1F1804F28D1164911
:1040B000091F0A6842F001020A60096801F0010163
:1040C0000591114914390A6842F001020A60096831
:1040D00001F0010105914FF4004100910221CDE969
:1040E000011003900120049069460848FEF7AAF8E1
:1040F000002205211C20FEF7D5FD1C20FEF7C6FD81
:1041000006B010BD000001404438024000000240EB
:104110007047000010B504460068012203F048FC17
:1041200008492068884202D00749884203D1416C7F
:1041300041F4004141642068016841F001010160DF
:10414000002010BD00000140000401402DE9F041B5
:10415000054600682649884201D1FEF71FFD254922
:104160002868254C884202D12188491C2180234996
:10417000DFF88C8000264FF0805788420DD11E4911
:104180006660091DA0690AF063F9606828B1C8F883
:104190000070BFF34F8FBFF36F8F1A4928688842B2
:1041A0000DD115492661103160690AF051F9206975
:1041B00028B1C8F80070BFF34F8FBFF36F8F12495B
:1041C0002868884203D1114A1178491C117010499E
:1041D00088420AD1C11400220E48FEF70AF90E489F
:1041E000FFF7A3FB0C4800684662BDE8F0810000C1
:1041F00000440140001400407808002000480140BD
:1042000004ED00E000100040001800409904002078
:10421000001C004000000240BC38002090F83830FC
:104220000022012B0AD0012380F8383041B1042943
:1042300009D008290AD00C290DD10AE002207047C4
:1042400001684A6B07E001688A6B04E00168CA6B89
:1042500001E001680A6C002180F8381010467047B0
:1042600070B5044690F83800012818D0012584F86C
:104270003850022084F83900204603F06DFC206895
:10428000C16821F04001C1602068C16821F480410B
:10429000C16084F83950002084F8380070BD0220D5
:1042A00070BD70477047000070B502680446106822
:1042B000D168536910F00F0F50D003F0010501F4DD
:1042C000907635435DD0C20705D0CA0503D5E26BB1
:1042D00042F00102E263420705D5DA0703D0E26B40
:1042E00042F00202E263820705D5DA0703D0E26BEF
:1042F00042F00402E263020705D5DA0703D0E26B5D
:1043000042F00802E263E26B002A33D0800604D553
:10431000880602D5204603F07CFD20684069E16BE9
:10432000C0F38010090700D428B3204603F05AFDDB
:104330002068416949061AD5416921F0400141616F
:10434000606BA0B11B490165606BFDF72FFD002874
:1043500010D0606B016DBDE870400847830610D532
:104360008B060ED52046BDE8704003F052BD2046B6
:10437000FFF798FF70BD2046FFF794FF0020E06331
:1043800070BD030606D50B0604D52046BDE8704077
:1043900003F0DCBE4006F3D54806F1D5D1682046CF
:1043A00021F04001D160202184F8391000F04CFA4E
:1043B00070BD00000D7D000870B5040004D094F8B5
:1043C0003900002510B106E0012070BD84F8385096
:1043D000204600F023F8242084F839002068C168C2
:1043E00021F40051C160204603F05AFD20680169A4
:1043F00021F4904101612068416921F02A01416165
:104400002068C16841F40051C160E563202084F850
:10441000390084F83A00002070BD00002DE9F04F0B
:1044200087B0044614216846FBF790FF7748764B27
:10443000D4F800C075491038022601270322002550
:104440004FF0006A4FF4806B9C455BD10B6843F4DE
:1044500080130B60096801F480110591016841F037
:1044600004010160016801F004010591016841F057
:10447000080101600068904600F008000590F00215
:104480004FF008098DE8C10369466148FDF7DAFE7F
:1044900004208DE8C10369465E48FDF7D3FE5F4EF8
:1044A0005D4857463060C6E901A5C6E9035B756102
:1044B000B561F5613562D84630467562FDF758FD45
:1044C00008B1FCF7B6FF6663B4635348544EA83096
:1044D000E6E802074020A6E82101514846F81459B1
:1044E000B561F56135627562FDF742FD08B1FCF713
:1044F000A0FF2663002205213520B463FEF7D2FB1E
:10450000352028E0DFF81C810723DFF81C91C44523
:1045100026D13E49091D0C6844F010040C6009685E
:1045200001F010010591016841F00101016000688E
:10453000694600F0010005904FF4C0608DE8C100AD
:104540004846CDE90323FDF77DFE00220521252005
:10455000FEF7A8FB2520FEF799FB07B0BDE8F08F1A
:10456000DFF8C880C445F8D1D1F800C04CF4003C55
:10457000C1F800C0096801F400310591016841F0FB
:10458000010101600068694600F0010005900C20FF
:104590008DE8C1004846CDE90323FDF753FE1E48D0
:1045A000234E78304FF480393060C6E901A5C6E962
:1045B000035B7561B561C6E90759D0465F46304671
:1045C0007562FDF7D5FC08B1FCF733FF6663B46391
:1045D0001148184E9030E6E802084020A1C6154860
:1045E00046F81459B561C6E907597562FDF7C0FC74
:1045F00008B1FCF71EFF2663002205212620B463C4
:10460000FEF750FB2620A6E700500040403802404D
:1046100000080240000C024010600240D43B002021
:10462000343C0020001001400000024000440040E3
:10463000943C0020F43C0020F8B5044690F83A0081
:1046400020283CD1C1B3BAB394F83800012836D041
:10465000012084F83800A162A2850025E5632220AC
:1046600084F83A00636B1748D863636B1648186484
:10467000636B1648D864606B134605650846666B25
:10468000216802463046091DFDF7DCFC2068016800
:104690004168009184F83850C16841F48071C1606C
:1046A0002068416941F0010141612068416941F0A0
:1046B000400141610020F8BDFFE70120FBE7022037
:1046C000F9E70000677D0008A37D00081D7D000854
:1046D00090F83A30202B1DD1D1B1CAB190F83830C2
:1046E000012B17D081628285C2850021C1632222FD
:1046F00080F83A2080F8381001684A6942F00102D7
:104700004A610068C16841F49071C160002070473F
:1047100001207047022070472DE9F04704460068E9
:104720002049DFF88480DFF884900025204F4FF087
:10473000805688420ED1C8F800504146D9F8000092
:1047400009F086FED8F8000020B13E60BFF34F8F1D
:10475000BFF36F8F1749206888420ED1C8F8005008
:104760001149D9F8000009F073FED8F8000020B113
:104770003E60BFF34F8FBFF36F8F0F4920688842B1
:104780000ED10E4C0E4821462560006809F060FEEF
:104790002068002804D03E60BFF34F8FBFF36F8FB7
:1047A000BDE8F08700500040B808002094080020C1
:1047B00004ED00E0004400400010014080080020AB
:1047C0009C0800207047000070B5044690F839003E
:1047D000202830D169B362B394F8380001282AD078
:1047E000012084F838002162A284E2840025E56378
:1047F000212084F83900236B1048D863236B1048BC
:104800001864236B0F48D864206B1346056526682F
:10481000206B321DFDF716FC21686FF04000086028
:1048200084F838502068416941F0800141610020DE
:1048300070BD012070BD022070BD0000AD7D00087C
:10484000DB7D00081D7D00082DE9F0470546006866
:1048500015490026154C164FDFF858904FF0805838
:1048600088420CD126602146386809F0F1FD2068A5
:1048700028B1C9F80080BFF34F8FBFF36F8F0E4987
:10488000286888420DD126600849386809F0E0FDA3
:104890002068002805D0C9F80080BFF34F8FBFF310
:1048A0006F8FBDE8F087000000500040B80800207E
:1048B0009408002004ED00E0004400407047FCF73D
:1048C00095FDFCE70148FDF7A1BD0000143600206E
:1048D0000148FDF7FDBD00001436002010B5806BC7
:1048E00001680A6822F480620A6000214185426BF7
:1048F0001165826B116590F83D302022602B80F8A5
:104900003D2080F83E1007D001680A6822F00102BD
:104910000A60FDF7D5FE10BD016401680A6822F047
:1049200001020A60FDF770FD10BD000070B590F83F
:104930003D10044600252026006829292DD02A296B
:104940002BD094F83D10602904D04168090501D4AA
:1049500084F83D60256384F83E50016821F40061CD
:10496000016020684168090537D5416821F400617C
:104970004160606B90F835203349012A12D00165FF
:10498000606BFDF713FA38B32068016821F001016C
:10499000016084F83D60606B1CE02563282184F889
:1049A0003D10DAE7A06B0165A06BFDF7FFF998B148
:1049B00020684169C943490604D40169606A421C00
:1049C000626201702068016821F00101016084F8D1
:1049D0003D60A06B016D88470FE094F83D106029A1
:1049E0001DD04169C943490604D40169606A421C6B
:1049F000626201702046FDF763FE94F83D002828AE
:104A00000CD1206C400709D51048E062256384F87A
:104A10003D6084F83E502046FDF7D8FE70BD84F816
:104A20003D6025644169C943490604D40169606A4F
:104A3000421C626201702068016821F0010101607E
:104A40002046FDF7E1FCD8E7DD4800080000FFFF45
:104A500001684A69D24352050CD46FF480624A61FE
:104A600004210164002140F8301F202242730173A9
:104A7000012070470020704710B5C26A438D01685D
:104A8000042B06D0438D032B08D0438D022B19D065
:104A90000EE04A6822F480624A6008E04A6822F424
:104AA00080624A6001680A6822F480620A600168D4
:104AB0000A69416A4B1C43620A70418D491E418557
:104AC000002010BD022A2AD0012A28D00A6842F408
:104AD00000720A6001680A69416A4B1C43620A70ED
:104AE000418D491E418501680A69416A4B1C436238
:104AF0000A70418D491E418501684A6822F440725E
:104B00004A60202180F83D100021016390F83E208A
:104B100080F83E10402A0BD0FDF759FED0E70A6816
:104B200022F480620A6001680A6842F48072D0E769
:104B3000FDF74FFEC4E710B590F83D10222937D19C
:104B4000418D032911D901680A69416A4B1C4362EE
:104B50000A70418D491E4185418D032928D1006885
:104B6000416821F48061416022E0012900D0F9B957
:104B700001680A6822F480620A6001684A6822F4C7
:104B8000E0624A6001680A69416A4B1C43620A702C
:104B9000418D491E4185202180F83D10002101638F
:104BA00090F83E2080F83E10402A03D0FDF70FFE1B
:104BB000002010BDFDF70DFEFAE710B5C26A90F8AF
:104BC0003D10212921D1418D49B1416A4A1C4262DF
:104BD000026809781161418D491E418515E0202345
:104BE0000021042A13D0082A11D012F5803F0ED0DC
:104BF0000268546824F4E06454601122026380F86F
:104C00003E1080F83D30FDF7E3FD002010BD026846
:104C1000546824F4E06454600268146844F4007436
:104C20001460016380F83D3090F83E2080F83E101B
:104C3000402AE8D1FDF7CEFDE7E7000010B590F877
:104C40003D1090F83E30C26A048D24B1212934D041
:104C5000402B30D074E02129FAD120230021042AEE
:104C600013D0082A11D012F5803F0ED00268546884
:104C700024F4E06454601122026380F83E1080F84E
:104C80003D3000BFFDF7A4FD5AE00268546824F4EB
:104C9000E06454600268146844F4007414600163B2
:104CA00080F83D3090F83E2080F83E10402AE9D14F
:104CB000FDF790FD44E0222942D1418D21B190F8C9
:104CC0003E10402906D032E00068416821F480613E
:104CD000416035E0016D31B1016D012911D0016DE7
:104CE000022915D02CE0C16C0129816C02D0C1F3DE
:104CF000072108E00268C9B21161016D891C0165D4
:104D00001EE0816CC9B202681161016D491CF6E7B1
:104D100090F83D10222904D090F83D10212906D0AA
:104D20000EE00068016841F48071016008E0416AAA
:104D30004A1C4262026809781161418D491E418511
:104D4000002010BD78B590F83E50C26A036B90F811
:104D50003D6000240168222E06D1066D0EB9402D5B
:104D600002D0056D25B107E048698869009058E0D8
:104D70000569B5F5404F08D0458D55B3458D012DDA
:104D80000ED0428D022A37D04DE04A698A690092DE
:104D90000A6842F480720A60016D491C016540E0B6
:104DA00012F5803F09D0042A20D0082A1ED0122BE9
:104DB0001CD0C26A022A08D113E00A6822F4806279
:104DC0000A6001684A68120503D50A6822F4806205
:104DD0000AE04A698A6900920A6842F400720A602D
:104DE0001EE00A6842F480620A6015E00A6822F454
:104DF00080620A600168ECE7C26A022A13D00A687E
:104E000022F480620A6001680A6842F400620A6063
:104E100001684A6812050AD401684A6989690091E3
:104E20000465002078BD0A6842F48062EFE74A68B2
:104E300042F480524A60EFE790F83E10402909D0D2
:104E40000169B1F5804F10D0016D99B1016D012953
:104E500015D01CE0016D19B9416C01F0FE0114E0A0
:104E6000416CC9B241F001010FE090F83D102129D9
:104E7000F6D1F1E7416CF02201F4407103E0416C9E
:104E8000F12201F4407142EAD11100680161002071
:104E900070472DE9F84F0446006889460B9D01686C
:104EA0009846174641F4806101602068016841F42A
:104EB0008071016000954FF0011A00225146204692
:104EC0000A9B00F086F9F0BB216809F0FE0008613A
:104ED0000AF1010B2B46594620460A9A00F0AAF91E
:104EE00018B1206C042812D03AE02068416980692A
:104EF00000902A4620460A9900F011FA50B1206C21
:104F000004282DD12068016841F40071016001205E
:104F1000BDE8F88FFEB2B8F1010F09D02168380A58
:104F200008612A4620460A9900F0F9F90028E6D1DE
:104F3000206806612A4620460A9900F0F0F9002808
:104F4000DDD1206800E00BE0016841F48071016070
:104F500000950022514620460A9B00F03AF908B11C
:104F60000320D5E7216809F0FF0040F00100086147
:104F70002B46594620460A9A00F05CF90028B0D129
:104F8000C6E700002DE9F843044600680D46DDE958
:104F9000089701689846164641F4807101604B46B7
:104FA00000224FF001112046009700F012F9E8B9F5
:104FB000216805F0FE0008613B464A461849204634
:104FC00000F038F928B1206C04280FD10120BDE889
:104FD000F88320684169806900903A464946204636
:104FE00000F09DF920B1206C042813D00320EEE7D7
:104FF000F5B2B8F1010F09D02168300A08613A46CC
:105000004946204600F08BF90028ECD12068056164
:105010000020DCE72068016841F400710160D5E7F9
:10502000020001002DE9F04190F83D40C26A0023E2
:105030001C4F202601686FF48065042A01D0082ADD
:1050400001D1282C05D0212C17D04D610020BDE8BE
:10505000F081C7624A6822F4E0624A6001684D61EB
:1050600001680A6822F480620A60036380F83D6088
:1050700080F83E30FDF7AAFBE8E7C7622122026311
:1050800080F83D6080F83E304A6822F4E0624A6071
:1050900001684D6101680A6822F480620A60FDF7C8
:1050A0007CFDD3E70000FFFF38B590F83D20016894
:1050B0004B6823F4E0634B60036800215C69009453
:1050C0001C6844F001041C6003681C6824F48064BC
:1050D0001C6003685C6824050BD590F83D40222CC9
:1050E0002BD090F83D402A2C27D0446B246864686C
:1050F0004485448DE4B15C69E443640707D41C69CA
:10510000436A5D1C45621C70438D5B1E43850368CA
:105110005C69E443640607D41C69436A5D1C45620C
:105120001C70438D5B1E4385036C43F004030364D2
:10513000036C23B1FFF7FAFB1FE0846BD6E7202353
:10514000282A09D02A2A07D0292A05D0046B222C24
:105150000CD0222A0AD010E0094AC262016380F80A
:105160003D3080F83E10FDF731FB06E0016380F82A
:105170003D3080F83E10FDF70FFD002038BD0000E7
:105180000000FFFF70B516460D4604461AE02046A3
:10519000FFF75EFC08B1012070BD681C12D025B17C
:1051A000FDF72CF9801BA8420CD954F8400F40F0B1
:1051B000200044F810090020206020216173207332
:1051C000032070BD20684069C0434007DFD4002041
:1051D00070BD2DE9F0471E4690460D460446C1F3CA
:1051E0000747DDF8209012E0701C10D02EB1FDF7BB
:1051F00005F9A0EB0900B04209D9002044F8300FAE
:1052000020216173A07320730320BDE8F08720681C
:10521000012F0AD0806925EA00000004000C06D0A6
:1052200000214145E0D00020EFE74069F3E701218C
:10523000F7E700002DE9F0479A4691460D460446EF
:1052400000264FF02008C1F307472AE02068406994
:10525000C043400512D42068016841F40071016028
:1052600021686FF48060486104202064266384F81C
:105270003D8084F83C600120BDE8F087B9F1FF3F34
:105280000FD0B9F1000F05D0FDF7B8F8A0EB0A0177
:10529000494506D944F8306F84F80D802673032001
:1052A000EAE72068012F07D0D0F8180025EA0000AF
:1052B0000004000CE0D0C9E74069F7E72DE9F041B0
:1052C000002590460E460446202721E04069C04351
:1052D000C0060CD421686FF0100048612564256376
:1052E00084F83D7084F83C500120BDE8F0812EB177
:1052F000FDF784F8A0EB0800B04209D954F8400F3C
:1053000040F0200044F80409677025700320ECE7A2
:1053100020684169C9434906D8D40020E5E770B543
:1053200016460D4604461AE02046FFF791FB08B1E9
:10533000012070BD681C12D025B1FDF75FF8801BFD
:10534000A8420CD954F8400F40F0200044F810094E
:1053500000202060202161732073032070BD20682D
:105360004069C0430006DFD4002070BD06480549EF
:10537000C16006490161064941612821417200204E
:1053800070470000991200080835002045120008F7
:10539000C112000830B587B000212148059106915F
:1053A00004910091019102911C4A039102604FF413
:1053B0008032C0E9012181611A4A0162C0E90A21F3
:1053C00003250124C561C0E9031404634161FCF7AE
:1053D00063FB16200490A00305904FF470600690C4
:1053E00004A90F48FCF74CF90D20CDE90004042472
:1053F00069460B480294FCF7E9F90220CDE9004028
:1054000069460748FCF7E2F90920CDE9000569463D
:105410000348FCF7DBF907B030BD00000020014075
:105420003C3500200100000F7FB500211748009196
:1054300001910291144A039102604FF48032C0E955
:10544000012181610325C0E907510124C0E903144A
:1054500004634161FCF720FB0C20CDE9000404202B
:10546000029069460948FCF7B1F90220CDE90040F5
:1054700069460648FCF7AAF90F20CDE90005694600
:105480000248FCF7A3F97FBD0021014084350020CC
:105490007FB50024164800940194029413490394A4
:1054A00001604FF48031C0E9011484610326C0E932
:1054B00007640125C0E9034505634461FCF7ECFA84
:1054C0000A20CDE900050420029069460848FCF74F
:1054D0007DF90220CDE9004069460548FCF776F9E0
:1054E000694603480196FCF771F97FBD002201402F
:1054F000CC3500202D4808B5016841F480010160D9
:10550000016801F480010091016841F4001101601B
:105510000068002200F40010009005210B20FDF728
:10552000C1FB0B20FDF7B2FB002205210D20FDF78A
:10553000B9FB0D20FDF7AAFB002205210F20FDF786
:10554000B1FB0F20FDF7A2FB002205211020FDF783
:10555000A9FB1020FDF79AFB002205211120FDF781
:10556000A1FB1120FDF792FB002205212F20FDF762
:1055700099FB2F20FDF78AFB002205213820FDF73B
:1055800091FB3820FDF782FB002205213920FDF731
:1055900089FB3920FDF77AFB002205213A20FDF72F
:1055A00081FBBDE808403A20FDF770BB303802406F
:1055B0002DE9F04F87B014216846FAF7C7FE50482E
:1055C0000024016841F004010160016801F0040158
:1055D0000591016841F080010160016801F08001DE
:1055E0000591016841F001010160016801F00101CC
:1055F0000591016841F002010160016801F00201BA
:105600000591016841F0080101600068DFF8F4903D
:1056100000F008004FF40265059000222946484634
:10562000FCF7E7FEDFF8E0B000224DF210315846FB
:10563000FCF7DFFEDFF8D4A04FF4407800224146AB
:105640005046FCF7D6FE4FF4005000903048CDE9AC
:10565000010469465046FCF7F5FD00950125CDE9AA
:105660000154694648460394FCF7ECFD294E4FF47B
:105670000D60CDE90006694602945046FCF7E2FD54
:1056800002202F03CDE90204CDE900756946584692
:10569000FCF7D8FD4CF210300090CDE9015469467A
:1056A00058460394FCF7CEFDCDF80080CDE90154B7
:1056B000694650460394FCF7C5FD17480097CDE9AD
:1056C000010469464846FCF7BDFD2020CDE90006EF
:1056D000694602945846FCF7B5FD002205211720C3
:1056E000FDF7E0FA1720FDF7D1FA00220521282066
:1056F000FDF7D8FA2820FDF7C9FA07B0BDE8F08F0A
:10570000303802400000024000040240000802401D
:105710000000211000001110000031100C480B494E
:105720004FF4007201604FF482714160002181608A
:10573000C1600161C0E905121822C0E90721416278
:1057400081620A21C162FDF747BE000000380040B7
:10575000683600200C480B494FF4007201604FF48A
:105760008271416000218160C1600161C0E9051260
:105770001822C0E90721416281620A21C162FDF756
:105780002BBE0000003C0040C036002010B590B099
:1057900000240E941C2168460F94FAF7D7FD1C21B3
:1057A00007A8FAF7D3FD1B4819490160B321C0E9E6
:1057B000011442F20F71C0E903144461FEF735FC95
:1057C0000E940EA913480F94FDF7CFFF60200090B0
:1057D00040F2DC50CDE901040394049405940022C6
:1057E00069460C480694FEF7B8FB079408940994A0
:1057F0004FF400500A94CDE90B4007A905480D94D9
:10580000FDF786FF0348FEF767FB10B010BD0000F0
:10581000000001401837002010B592B014210BA8E9
:10582000FAF794FD002401940294009403941094D8
:105830001C2104A81194FAF789FD22484FF08041F9
:1058400001605921C0E9011441F28731C0E9031414
:10585000FEF7EBFB1B48FEF74AFA04200B905020A2
:10586000CDE90C040E940BA916480F94FEF7F8FC32
:105870000120CDE9004002940022694611480394BA
:10588000FEF7A6F9022000900190042269460D4817
:10589000FEF79EF9109410A90A481194FDF765FFD0
:1058A0006020049040F2DC50CDE905040C2204A9EC
:1058B00004480894FEF751FB0248FEF70DFB12B0B6
:1058C00010BD00005437002010B58CB0242168466C
:1058D000FAF73CFD00241248099410490A94C0E9E3
:1058E00000144FF6FF71C0E9024104610120CDE9C7
:1058F0000004CDE9020405210491CDE90540CDE97C
:10590000074169460648FEF79EF8099409A904482C
:105910000A94FDF72AFF0CB010BD000000040040FF
:1059200090370020FBF762FDFCE770470907090E7E
:10593000002806DA00F00F0000F1E02080F8141DC6
:10594000704700F1E02080F8001470470148FDF72F
:10595000D9BC00006836002038B50B4600920446DA
:105960000022802100F010F8002804D0606D40F083
:1059700020006065032038BD10B5806B0021C18711
:10598000C186FDF7BDFC10BD2DE9F0411D4617464F
:105990000E460446DDF8188035E0681C33D02DB182
:1059A000FCF72CFDA0EB0800A8422CD3206841682E
:1059B00021F0E00141606068B0F5827F0BD1A06802
:1059C000B0F5004F02D0B0F5806F04D120680168B7
:1059D00021F040010160A06AB0F5005F0AD12068A3
:1059E00001684DF6FF72114001602068016841F4C2
:1059F00000510160012084F85100002084F850001B
:105A00000320BDE8F0812068806836EA000004D0F9
:105A10000020B842C1D10020F3E70120F9E70000DF
:105A200064494FF040702DED048B08609FED628A51
:105A30009FED629ADFED628ADFF888910026A9F572
:105A4000D27809F1280AA9F1240B08F1C0075E4CAD
:105A500006F048FB606026705C4D0022102128464D
:105A6000FCF7C7FC584894F90010203000EB4101C6
:105A70004FF6FF7302225648FDF794FD01221021D4
:105A80002846FCF7B6FC5348FDF743FF0A214D4872
:105A900006F0ACFDBCEEC00A4A480A2184ED040AB7
:105AA000283006F0A3FDBCEEC00AFFEE000A84ED2C
:105AB000030AB8EE400A03F0BBFA20EE080AF0EE43
:105AC000490A84ED050A94ED040AB8EE400A03F091
:105AD000AFFA20EE280A0521012084ED060A08F01D
